{
  "contractName": "Hero",
  "abi": [
    {
      "inputs": [
        {
          "internalType": "string",
          "name": "_hero",
          "type": "string"
        }
      ],
      "stateMutability": "nonpayable",
      "type": "constructor"
    },
    {
      "inputs": [
        {
          "internalType": "string",
          "name": "_hero",
          "type": "string"
        }
      ],
      "name": "setHero",
      "outputs": [],
      "stateMutability": "nonpayable",
      "type": "function"
    },
    {
      "inputs": [],
      "name": "getHero",
      "outputs": [
        {
          "internalType": "string",
          "name": "",
          "type": "string"
        }
      ],
      "stateMutability": "view",
      "type": "function"
    }
  ],
  "bytecode": "0x60806040523480156200001157600080fd5b5060405162000d3f38038062000d3f83398181016040528101906200003791906200022d565b336000806101000a81548173ffffffffffffffffffffffffffffffffffffffff021916908373ffffffffffffffffffffffffffffffffffffffff1602179055508060019081620000889190620004c9565b5050620005b0565b6000604051905090565b600080fd5b600080fd5b600080fd5b600080fd5b6000601f19601f8301169050919050565b7f4e487b7100000000000000000000000000000000000000000000000000000000600052604160045260246000fd5b620000f982620000ae565b810181811067ffffffffffffffff821117156200011b576200011a620000bf565b5b80604052505050565b60006200013062000090565b90506200013e8282620000ee565b919050565b600067ffffffffffffffff821115620001615762000160620000bf565b5b6200016c82620000ae565b9050602081019050919050565b60005b83811015620001995780820151818401526020810190506200017c565b83811115620001a9576000848401525b50505050565b6000620001c6620001c08462000143565b62000124565b905082815260208101848484011115620001e557620001e4620000a9565b5b620001f284828562000179565b509392505050565b600082601f830112620002125762000211620000a4565b5b815162000224848260208601620001af565b91505092915050565b6000602082840312156200024657620002456200009a565b5b600082015167ffffffffffffffff8111156200026757620002666200009f565b5b6200027584828501620001fa565b91505092915050565b600081519050919050565b7f4e487b7100000000000000000000000000000000000000000000000000000000600052602260045260246000fd5b60006002820490506001821680620002d157607f821691505b602082108103620002e757620002e662000289565b5b50919050565b60008190508160005260206000209050919050565b60006020601f8301049050919050565b600082821b905092915050565b600060088302620003517fffffffffffffffffffffffffffffffffffffffffffffffffffffffffffffffff8262000312565b6200035d868362000312565b95508019841693508086168417925050509392505050565b6000819050919050565b6000819050919050565b6000620003aa620003a46200039e8462000375565b6200037f565b62000375565b9050919050565b6000819050919050565b620003c68362000389565b620003de620003d582620003b1565b8484546200031f565b825550505050565b600090565b620003f5620003e6565b62000402818484620003bb565b505050565b5b818110156200042a576200041e600082620003eb565b60018101905062000408565b5050565b601f82111562000479576200044381620002ed565b6200044e8462000302565b810160208510156200045e578190505b620004766200046d8562000302565b83018262000407565b50505b505050565b600082821c905092915050565b60006200049e600019846008026200047e565b1980831691505092915050565b6000620004b983836200048b565b9150826002028217905092915050565b620004d4826200027e565b67ffffffffffffffff811115620004f057620004ef620000bf565b5b620004fc8254620002b8565b620005098282856200042e565b600060209050601f8311600181146200054157600084156200052c578287015190505b620005388582620004ab565b865550620005a8565b601f1984166200055186620002ed565b60005b828110156200057b5784890151825560018201915060208501945060208101905062000554565b868310156200059b578489015162000597601f8916826200048b565b8355505b6001600288020188555050505b505050505050565b61077f80620005c06000396000f3fe608060405234801561001057600080fd5b50600436106100365760003560e01c80631a126e141461003b578063581bee2f14610057575b600080fd5b61005560048036038101906100509190610302565b610075565b005b61005f610116565b60405161006c91906103d3565b60405180910390f35b60008054906101000a900473ffffffffffffffffffffffffffffffffffffffff1673ffffffffffffffffffffffffffffffffffffffff163373ffffffffffffffffffffffffffffffffffffffff1614610103576040517f08c379a00000000000000000000000000000000000000000000000000000000081526004016100fa90610441565b60405180910390fd5b80600190816101129190610677565b5050565b60606001805461012590610490565b80601f016020809104026020016040519081016040528092919081815260200182805461015190610490565b801561019e5780601f106101735761010080835404028352916020019161019e565b820191906000526020600020905b81548152906001019060200180831161018157829003601f168201915b5050505050905090565b6000604051905090565b600080fd5b600080fd5b600080fd5b600080fd5b6000601f19601f8301169050919050565b7f4e487b7100000000000000000000000000000000000000000000000000000000600052604160045260246000fd5b61020f826101c6565b810181811067ffffffffffffffff8211171561022e5761022d6101d7565b5b80604052505050565b60006102416101a8565b905061024d8282610206565b919050565b600067ffffffffffffffff82111561026d5761026c6101d7565b5b610276826101c6565b9050602081019050919050565b82818337600083830152505050565b60006102a56102a084610252565b610237565b9050828152602081018484840111156102c1576102c06101c1565b5b6102cc848285610283565b509392505050565b600082601f8301126102e9576102e86101bc565b5b81356102f9848260208601610292565b91505092915050565b600060208284031215610318576103176101b2565b5b600082013567ffffffffffffffff811115610336576103356101b7565b5b610342848285016102d4565b91505092915050565b600081519050919050565b600082825260208201905092915050565b60005b8381101561038557808201518184015260208101905061036a565b83811115610394576000848401525b50505050565b60006103a58261034b565b6103af8185610356565b93506103bf818560208601610367565b6103c8816101c6565b840191505092915050565b600060208201905081810360008301526103ed818461039a565b905092915050565b7f4e6f7420746865206f776e657200000000000000000000000000000000000000600082015250565b600061042b600d83610356565b9150610436826103f5565b602082019050919050565b6000602082019050818103600083015261045a8161041e565b9050919050565b7f4e487b7100000000000000000000000000000000000000000000000000000000600052602260045260246000fd5b600060028204905060018216806104a857607f821691505b6020821081036104bb576104ba610461565b5b50919050565b60008190508160005260206000209050919050565b60006020601f8301049050919050565b600082821b905092915050565b6000600883026105237fffffffffffffffffffffffffffffffffffffffffffffffffffffffffffffffff826104e6565b61052d86836104e6565b95508019841693508086168417925050509392505050565b6000819050919050565b6000819050919050565b600061057461056f61056a84610545565b61054f565b610545565b9050919050565b6000819050919050565b61058e83610559565b6105a261059a8261057b565b8484546104f3565b825550505050565b600090565b6105b76105aa565b6105c2818484610585565b505050565b5b818110156105e6576105db6000826105af565b6001810190506105c8565b5050565b601f82111561062b576105fc816104c1565b610605846104d6565b81016020851015610614578190505b610628610620856104d6565b8301826105c7565b50505b505050565b600082821c905092915050565b600061064e60001984600802610630565b1980831691505092915050565b6000610667838361063d565b9150826002028217905092915050565b6106808261034b565b67ffffffffffffffff811115610699576106986101d7565b5b6106a38254610490565b6106ae8282856105ea565b600060209050601f8311600181146106e157600084156106cf578287015190505b6106d9858261065b565b865550610741565b601f1984166106ef866104c1565b60005b82811015610717578489015182556001820191506020850194506020810190506106f2565b868310156107345784890151610730601f89168261063d565b8355505b6001600288020188555050505b50505050505056fea2646970667358221220ec340c3b05238e2e3ddf81d1e872a68fdab39730e4d22ee4f7290983b68a591464736f6c634300080f0033",
  "immutableReferences": {},
  "source": "// SPDX-License-Identifier: UNLICENSED\r\npragma solidity >=0.7.0 <0.9.0;\r\n\r\ncontract Hero {\r\n    address owner;\r\n    string hero;\r\n\r\n    constructor(string memory _hero) {\r\n        owner = msg.sender;\r\n        hero = _hero;\r\n    }\r\n\r\n    function setHero(string memory _hero) public {\r\n        require(msg.sender == owner, \"Not the owner\");\r\n        hero = _hero;\r\n    }\r\n\r\n    function getHero() public view returns (string memory) {\r\n        return hero;\r\n    }\r\n}\r\n",
  "sourcePath": "f:\\$tudy\\BlockChain\\solidity_smart contract\\00\\local_hero\\contracts\\Hero.sol",
  "compiler": {
    "name": "solc",
    "version": "0.8.15+commit.e14f2714.Emscripten.clang"
  },
  "schemaVersion": "3.4.8",
  "updatedAt": "2022-07-21T03:32:57.117Z",
  "devdoc": {
    "kind": "dev",
    "methods": {},
    "version": 1
  },
  "userdoc": {
    "kind": "user",
    "methods": {},
    "version": 1
  }
}